:08000000B41004000000000030
:040034008E05000035
:040074004807000039
:100400003220EF00C3202000008041001040BA00DD
:100410000160EF00000006005465000073740000E6
:1004200065000000851F7800861F7800E108200025
:100430000000E0001200320000F0A70004003700C6
:100440004200A9000080D2008100E900FAFF3700D5
:100450000180FD004200A9008180D30000F0A100CE
:100460000080FD00814068000040B20007003700B6
:10047000014078000170A0000140B2000300370085
:100480000000EB008000EB00000037004F03780015
:10049000CF02780000000600851F7800C50020000C
:1004A00004000900B51F780000027800810278007E
:1004B00083037800020378004200A9004220A900CB
:1004C0008180D2000180FD00F10FB2000100E00048
:1004D0004B0032004200A9004220A9008381D200D3
:1004E0000380FD00F30FB2000300E000440032007F
:1004F0000080FB0001C0410004003100F007B100A2
:100500003F0032003E003900020037001048B000C2
:100510003B00310007856A004200A9004220A90083
:10052000F50FB2000570A0004200A900F70FB2005D
:100530000770A0000621B800062CB80083014C000B
:10054000890078004200AF008100E8004200A90065
:10055000043CB80083014C0081804C00072CB8009B
:1005600081004C000000E8000100E0004220AF00E4
:1005700001003700030037000300E0004220AF0015
:100580000500370001F0A700030037008381D20087
:100590008180D2000000E900010178004200A9003A
:1005A0000370A6000900370007F02F008781610063
:1005B0000310B000600149000200E00003003A00AF
:1005C0000300E00001003A000000E8000080FD00A8
:1005D0004200A9004220A9008080D3000AF0A700B1
:1005E00001F0A00002F0A1000280FD00814069003E
:1005F0000380FD000341780002007800030037000B
:10060000000020000100200000003700450120000C
:1006100004000900CF127800CF0278000000060025
:100620000001780081017800014078000080FD0021
:1006300000F0A0008180D2000180FD008180FB00DD
:10064000E408200081405200060032000000E00073
:10065000040032004200A9000080D3008100E900BC
:10066000FAFF3A0003F0A600020037000000EA009B
:100670000000370000000600851F7800861F780004
:10068000E10820000600A10000F0A60003003700EA
:100690000600A0000000EA00000037000000E000B3
:1006A0001400320000F0A700040037004200A90047
:1006B0000080D2008100E900FAFF37000180FD00D0
:1006C0004200A9008180D30000F0A1000080FD005D
:1006D000814068000040B2000600A70001F0A000C1
:1006E00007003700014078000170A0000140B2000F
:1006F000030037000000EB008000EB000000370033
:100700004F037800CF02780000000600851F7800B4
:10071000C500200003000900B51F78008004EB002D
:10072000080028004300AF0083016C000105780039
:100730008A85690001037800830378000306780046
:100740004220A9004200A9000683D2000680FD00D5
:10075000F60FB2000600E000A10032004220A9001E
:100760004200A9008783D2000780FD00F70FB20086
:100770000700E0009F0032004220A9004200A900CB
:100780000638E1009C003200A30033000900A100FC
:100790000910A0000684530007037800F10FB2008F
:1007A0000170A000F30FB2000370A00087022000C8
:1007B0000838E100110033004220A9004200A900DE
:1007C0008180D3000080D3000804E900FAFF3A00DA
:1007D0000D003700870220000838E10009003300CF
:1007E0004220A9004200A9008381D3000281D300E6
:1007F0000804E900FAFF3A000F0037000200780011
:1008000083007800430037000BF0A600110037008A
:100810000940A7008C0578000000EA0002003200C1
:1008200081C0EA00010037008100EA000940A7000A
:100830002B003700070037000BF0A600050037003B
:100840000201EA000200320083C1EA000100370021
:100850008301EA00F50FB2004220A9004200A9007E
:100860000200400083C048004200AF000930A000F1
:100870000900A700090037000910A7000100370090
:100880000B0037000BF0A700150037000930A70058
:10089000290037000960A0001E0037000BF0A700F8
:1008A0000F0037000930A700230037001900370078
:1008B0000920A1000BF0A700040037008A0578008A
:1008C0000930A7001C003700360037000940A0009F
:1008D00001C8B2000170A700CDFF37008A0578007B
:1008E000F10FB200810370000A0032000170A7000E
:1008F000080037004220A9004200A9000080D20071
:100900008180D2000603E9004220AF0031003700A9
:10091000F6FF37000900A7008A0578000910A70034
:100920008C0578000950A6001A0037000AF0A700CD
:100930000080A0001B0037004200A80081C0D30047
:100940000080D3004200AF000950A0000603E80079
:10095000200032000950A600080037000000E8001F
:1009600006003A008140E80004003A0081C0D3004C
:100970000080D3000603E800160032000900A7003B
:100980008A0578000910A7008C0578004220AF0086
:10099000100037000960A7008A0578000970A700D9
:1009A0008C05780001017000230032000170A10065
:1009B0000680FD004220A9004200A9000683D30062
:1009C00081006B0001F0A0000BF0A60001F0A10077
:1009D0001900370000002000010020001600370039
:1009E0000AF0A70083016C00020078008300780001
:1009F0001100370010003700F30FB2000370A000A1
:100A0000F10FB2000170A0000BF0A7000370A1006D
:100A10000920A00088FF370007045300F10FB2003F
:100A20000170A000F30FB2000370A0000910A10034
:100A30000900A00067FF370025012000030009001E
:100A4000CF127800CF02780000000600851F7800E2
:100A5000861F7800871F78000382680004F0A600D4
:100A6000060037004200A9004220A90001F0A600BC
:100A7000260037004200A800240037000102780059
:100A80008002780003037800820378008180D2001E
:100A90000180FD008381D2000380FD0081C05100F0
:100AA0000500320004F0A6001800370010002000F6
:100AB00042E0B60015003700844078008641780097
:100AC0000170A1000370A10081C051000500320037
:100AD00004F0A6000D0037001000200042E0B60030
:100AE0000A003700858053000500320004F0A6009C
:100AF000060037001000200042E0B6000300370077
:100B00004200A9000100370000003700CF03780041
:100B10004F037800CF027800000006004200F80082
:100B20003600F800801F7800200020000C0009002B
:100B3000B01F78009460A9008460A900D4418000AF
:100B40006120E1007A003A003608E20005003A0030
:100B50002028EF00042B240014418800B405040071
:100B6000000000003628ED002003A9002023A80083
:100B70002003AE00FEFF37000018800012020200C2
:100B800000000000204188003141880020418000A1
:100B900031418000A29C280063DF23004C02020048
:100BA000000000001003020000000000E040880088
:100BB000E04080003C030200000000004300A80069
:100BC000000178008101780000418000114180001F
:100BD0008603020000000000704088008140880009
:100BE000704080008140800002002000030020004F
:100BF000260502000000000004003A00D47B230018
:100C000074408800645823008440880020C5220076
:100C100071C3230072408000834080004C020200B8
:100C200000000000800278000103780020922A0072
:100C300051C0230092408000A34080004C0202007B
:100C4000000000004300A800000178008101780046
:100C5000050078008600780086030200000000008E
:100C600080027800010378004300A90005007800A5
:100C700086007800324080004340800086030200F6
:100C80000000000010408800214088000E08F80095
:100C90001208F9001008F8001408F9000208F8001A
:100CA0000608F9000408F8000808F9001040800060
:100CB0002140800002002400C36124004C02020095
:100CC000000000001040880021408800000027003C
:100CD000416124001240800023408000260502006C
:100CE00000000000040039000400270014408800C0
:100CF000446124002440880010408000214080008E
:100D00000200200003002000260502000000000071
:100D1000020039000228EF000428EF001040800094
:100D20002140800010030200000000000040880005
:100D30009460A8008460A900A00120000C000900B4
:100D40004F1078004F0078003600F9004200F9009B
:100D500000400600E1EE2F00420E8000130120004B
:100D60000101610003017100420E8800C1CF2F0014
:100D7000A20E800003002000010161000301710048
:100D8000A20E8800E1CF2F00820E80000300200019
:100D90000101610003017100820E8800E1CF2F0084
:100DA000920E800003002000010161000301710028
:100DB000920E8800CE21A900CE01A900D1DD2F001E
:100DC000420E800023022000010161000301710036
:100DD000420E8800313F2F00A20E80000300200049
:100DE0000101610003017100A20E8800D13F2F00B4
:100DF000820E8000030020000101610003017100E8
:100E0000820E8800D13F2F00920E80000300200048
:100E10000101610003017100920E8800CE61A900FA
:100E2000CE41A900B1BB2F00420E80004304200038
:100E30000101610003017100420E8800F1FC2C00E9
:100E4000A20E800003002000010161000301710077
:100E5000A20E8800B1FF2C00820E8000030020004B
:100E60000101610003017100820E8800B1FF2C00B6
:100E7000920E800003002000010161000301710057
:100E8000920E8800CEA1A900CE81A9000000060024
:100E90004200F8003600F800801F78002000200093
:100EA0000C000900B01F78000CA0A9000CC0A9001C
:100EB0000CE0A900C8A2EF00CA02F8003C08F90043
:100EC000E04180006E006000E04188003C28D500D1
:100ED0000E2709000000000014002000D441880003
:100EE000E04180000080B2000F0032001080B200AC
:100EF000110032003080B200B50032001080B20024
:100F0000570132007080B200F90132001080B20047
:100F10009B0232003080B2003D0332001080B200EC
:100F2000DF033200E2033700AA06020000000000DF
:100F3000580F040000000000E1EE2F00420E800078
:100F4000130120000101610003017100420E8800BD
:100F5000C1CF2F00A20E800003002000010161001C
:100F600003017100A20E8800E1CF2F00820E8000E5
:100F7000030020000101610003017100820E88005E
:100F8000E1CF2F00920E80000300200001016100DC
:100F900003017100920E880010C4B300CCE1B700C9
:100FA000CE21A900CE01A900D1DD2F00420E800084
:100FB000230220000101610003017100420E88003C
:100FC000313F2F00A20E80000300200001016100CC
:100FD00003017100A20E8800D13F2F00820E800015
:100FE000030020000101610003017100820E8800EE
:100FF000D13F2F00920E800003002000010161000C
:1010000003017100920E8800CE61A900CE41A900B3
:10101000B1BB2F00420E800043042000010161009B
:1010200003017100420E8800F1FC2C00A20E80002A
:10103000030020000101610003017100A20E88007D
:10104000B1FF2C00820E800003002000010161002E
:1010500003017100820E8800B1FF2C00920E800007
:10106000030020000101610003017100920E88005D
:10107000CEA1A900CE81A9000008F800D601F90090
:101080000008F800D801F9000008F800DA01F900BA
:10109000E1EE2F00420E80001301200001016100EB
:1010A00003017100420E8800C1CF2F00A20E800004
:1010B000033020000101610003017100A20E8800CD
:1010C000E1CF2F00820E80000300200001016100AB
:1010D00003017100820E8800E1CF2F00920E800084
:1010E000030020000101610003017100920E8800DD
:1010F000CE21A900CE01A900D1DD2F00420E800033
:10110000230220000101610003017100420E8800EA
:10111000313F2F00A20E800003002000010161007A
:1011200003017100A20E8800D13F2F00820E8000C3
:10113000030020000101610003017100820E88009C
:10114000D13F2F00920E80000300200001016100BA
:1011500003017100920E8800CE61A900CE41A90062
:10116000B1BB2F00420E800043042000010161004A
:1011700003017100420E8800F1FC2C00A20E8000D9
:10118000030120000101610003017100A20E88002B
:10119000B1FF2C00820E80000300200001016100DD
:1011A00003017100820E8800B1FF2C00920E8000B6
:1011B000030020000101610003017100920E88000C
:1011C000CEA1A900CE81A900580F040000000000A4
:1011D000E1EE2F00420E80001301200001016100AA
:1011E00003017100420E8800C1CF2F00A20E8000C3
:1011F000030020000101610003017100A20E8800BC
:10120000E1CF2F00820E8000030020000101610069
:1012100003017100820E8800E1CF2F00920E800042
:10122000030020000101610003017100920E88009B
:10123000CE21A900CE01A900D1DD2F00420E8000F1
:10124000230220000101610003017100420E8800A9
:10125000313F2F00A20E8000030020000101610039
:1012600003017100A20E8800D13F2F00820E800082
:10127000030020000101610003017100820E88005B
:10128000D13F2F00920E8000030020000101610079
:1012900003017100920E8800CE61A900CE41A90021
:1012A000B1BB2F00420E8000430420000101610009
:1012B00003017100420E8800F1FC2C00A20E800098
:1012C000030020000101610003017100A20E8800EB
:1012D000B1FF2C00820E800003002000010161009C
:1012E00003017100820E8800B1FF2C00920E800075
:1012F000030020000101610003017100920E8800CB
:10130000CEA1A900CE81A9000008F800D601F900FD
:101310000008F800D801F9000008F800DA01F90027
:10132000E1EE2F00420E8000130120000101610058
:1013300003017100420E8800C1CF2F00A20E800071
:10134000130020000101610003017100A20E88005A
:10135000E1CF2F00820E8000030020000101610018
:1013600003017100820E8800E1CF2F00920E8000F1
:10137000030020000101610003017100920E88004A
:10138000CE21A900CE01A900D1DD2F00420E8000A0
:10139000230220000101610003017100420E880058
:1013A000313F2F00A20E800003C020000101610028
:1013B00003017100A20E8800D13F2F00820E800031
:1013C000030020000101610003017100820E88000A
:1013D000D13F2F00920E8000030020000101610028
:1013E00003017100920E8800CE61A900CE41A900D0
:1013F000B1BB2F00420E80004304200001016100B8
:1014000003017100420E8800F1FC2C00A20E800046
:10141000030020000101610003017100A20E880099
:10142000B1FF2C00820E800003002000010161004A
:1014300003017100820E8800B1FF2C00920E800023
:10144000030020000101610003017100920E880079
:10145000CEA1A900CE81A900580F04000000000011
:10146000E1EE2F00420E8000130120000101610017
:1014700003017100420E8800C1CF2F00A20E800030
:10148000030020000101610003017100A20E880029
:10149000E1CF2F00820E80000300200001016100D7
:1014A00003017100820E8800E1CF2F00920E8000B0
:1014B000030020000101610003017100920E880009
:1014C000CE21A900CE01A900D1DD2F00420E80005F
:1014D000230220000101610003017100420E880017
:1014E000313F2F00A20E80000300200001016100A7
:1014F00003017100A20E8800D13F2F00820E8000F0
:10150000030020000101610003017100820E8800C8
:10151000D13F2F00920E80000300200001016100E6
:1015200003017100920E8800CE61A900CE41A9008E
:10153000B1BB2F00420E8000430420000101610076
:1015400003017100420E8800F1FC2C00A20E800005
:10155000030020000101610003017100A20E880058
:10156000B1FF2C00820E8000030020000101610009
:1015700003017100820E8800B1FF2C00920E8000E2
:10158000030020000101610003017100920E880038
:10159000CEA1A900CE81A9000008F800D601F9006B
:1015A0000008F800D801F9000008F800DA01F90095
:1015B000E1EE2F00420E80001301200001016100C6
:1015C00003017100420E8800C1CF2F00A20E8000DF
:1015D000030020000101610003017100A20E8800D8
:1015E000E1CF2F00820E8000030020000101610086
:1015F00003017100820E8800E1CF2F00920E80005F
:10160000030020000101610003017100920E8800B7
:10161000CE21A900CE01A900D1DD2F00420E80000D
:10162000230220000101610003017100420E8800C5
:10163000313F2F00A20E800003C020000101610095
:1016400003017100A20E8800D13F2F00820E80009E
:10165000030020000101610003017100820E880077
:10166000D13F2F00920E8000030020000101610095
:1016700003017100920E8800CE61A900CE41A9003D
:10168000B1BB2F00420E8000430420000101610025
:1016900003017100420E8800F1FC2C00A20E8000B4
:1016A000030120000101610003017100A20E880006
:1016B000B1FF2C00820E80000300200001016100B8
:1016C00003017100820E8800B1FF2C00920E800091
:1016D000030020000101610003017100920E8800E7
:1016E000CEA1A900CE81A900580F0400000000007F
:1016F000E1EE2F00420E8000130120000101610085
:1017000003017100420E8800C1CF2F00A20E80009D
:10171000030020000101610003017100A20E880096
:10172000E1CF2F00820E8000030020000101610044
:1017300003017100820E8800E1CF2F00920E80001D
:10174000030020000101610003017100920E880076
:10175000CE21A900CE01A900D1DD2F00420E8000CC
:10176000230220000101610003017100420E880084
:10177000313F2F00A20E8000030020000101610014
:1017800003017100A20E8800D13F2F00820E80005D
:10179000030020000101610003017100820E880036
:1017A000D13F2F00920E8000030020000101610054
:1017B00003017100920E8800CE61A900CE41A900FC
:1017C000B1BB2F00420E80004304200001016100E4
:1017D00003017100420E8800F1FC2C00A20E800073
:1017E000030020000101610003017100A20E8800C6
:1017F000B1FF2C00820E8000030020000101610077
:1018000003017100820E8800B1FF2C00920E80004F
:10181000030020000101610003017100920E8800A5
:10182000CEA1A900CE81A9000008F800D601F900D8
:101830000008F800D801F9000008F800DA01F90002
:10184000E1EE2F00420E8000130120000101610033
:1018500003017100420E8800C1CF2F00A20E80004C
:10186000030020000101610003017100A20E880045
:10187000E1CF2F00820E80000300200001016100F3
:1018800003017100820E8800E1CF2F00920E8000CC
:10189000030020000101610003017100920E880025
:1018A000CE21A900CE01A900D1DD2F00420E80007B
:1018B000230220000101610003017100420E880033
:1018C000313F2F00A20E8000430020000101610083
:1018D00003017100A20E8800D13F2F00820E80000C
:1018E000030020000101610003017100820E8800E5
:1018F000D13F2F00920E8000030020000101610003
:1019000003017100920E8800CE61A900CE41A900AA
:10191000B1BB2F00420E8000430420000101610092
:1019200003017100420E8800F1FC2C00A20E800021
:10193000030023000101610003017100A20E880071
:10194000B1FF2C00820E8000030020000101610025
:1019500003017100820E8800B1FF2C00920E8000FE
:10196000030020000101610003017100920E880054
:10197000CEA1A900CE81A900580F040000000000EC
:10198000E1EE2F00420E80001301200001016100F2
:1019900003017100420E8800C1CF2F00A20E80000B
:1019A000030020000101610003017100A20E880004
:1019B000E1CF2F00820E80000300200001016100B2
:1019C00003017100820E8800E1CF2F00920E80008B
:1019D000030020000101610003017100920E8800E4
:1019E000CE21A900CE01A900D1DD2F00420E80003A
:1019F000230220000101610003017100420E8800F2
:101A0000313F2F00A20E8000030020000101610081
:101A100003017100A20E8800D13F2F00820E8000CA
:101A2000030020000101610003017100820E8800A3
:101A3000D13F2F00920E80000300200001016100C1
:101A400003017100920E8800CE61A900CE41A90069
:101A5000B1BB2F00420E8000430420000101610051
:101A600003017100420E8800F1FC2C00A20E8000E0
:101A7000030020000101610003017100A20E880033
:101A8000B1FF2C00820E80000300200001016100E4
:101A900003017100820E8800B1FF2C00920E8000BD
:101AA000030020000101610003017100920E880013
:101AB000CEA1A900CE81A9000008F800D601F90046
:101AC0000008F800D801F9000008F800DA01F90070
:101AD000E1EE2F00420E80001301200001016100A1
:101AE00003017100420E8800C1CF2F00A20E8000BA
:101AF000033020000101610003017100A20E880083
:101B0000E1CF2F00820E8000030020000101610060
:101B100003017100820E8800E1CF2F00920E800039
:101B2000030020000101610003017100920E880092
:101B3000CE21A900CE01A900D1DD2F00420E8000E8
:101B4000230220000101610003017100420E8800A0
:101B5000313F2F00A20E80004300200001016100F0
:101B600003017100A20E8800D13F2F00820E800079
:101B7000030020000101610003017100820E880052
:101B8000D13F2F00920E8000030020000101610070
:101B900003017100920E8800CE61A900CE41A90018
:101BA000B1BB2F00420E8000430420000101610000
:101BB00003017100420E8800F1FC2C00A20E80008F
:101BC000030020000101610003017100A20E8800E2
:101BD000B1FF2C00820E8000030020000101610093
:101BE00003017100820E8800B1FF2C00920E80006C
:101BF000030020000101610003017100920E8800C2
:101C0000CEA1A900CE81A900580F04000000000059
:101C1000E1EE2F00420E800013012000010161005F
:101C200003017100420E8800C1CF2F00A20E800078
:101C3000030020000101610003017100A20E880071
:101C4000E1CF2F00820E800003002000010161001F
:101C500003017100820E8800E1CF2F00920E8000F8
:101C6000030020000101610003017100920E880051
:101C7000CE21A900CE01A900D1DD2F00420E8000A7
:101C8000230220000101610003017100420E88005F
:101C9000313F2F00A20E80000300200001016100EF
:101CA00003017100A20E8800D13F2F00820E800038
:101CB000030020000101610003017100820E880011
:101CC000D13F2F00920E800003002000010161002F
:101CD00003017100920E8800CE61A900CE41A900D7
:101CE000B1BB2F00420E80004304200001016100BF
:101CF00003017100420E8800F1FC2C00A20E80004E
:101D0000030020000101610003017100A20E8800A0
:101D1000B1FF2C00820E8000030020000101610051
:101D200003017100820E8800B1FF2C00920E80002A
:101D3000030020000101610003017100920E880080
:101D4000CEA1A900CE81A9000008F800D601F900B3
:101D50000008F800D801F9000008F800DA01F900DD
:101D6000E1EE2F00420E800013012000010161000E
:101D700003017100420E8800C1CF2F00A20E800027
:101D8000130020000101610003017100A20E880010
:101D9000E1CF2F00820E80000300200001016100CE
:101DA00003017100820E8800E1CF2F00920E8000A7
:101DB000030020000101610003017100920E880000
:101DC000CE21A900CE01A900D1DD2F00420E800056
:101DD000230220000101610003017100420E88000E
:101DE000313F2F00A20E800003002000010161009E
:101DF00003017100A20E8800D13F2F00820E8000E7
:101E0000030020000101610003017100820E8800BF
:101E1000D13F2F00920E80000300200001016100DD
:101E200003017100920E8800CE61A900CE41A90085
:101E3000B1BB2F00420E800043042000010161006D
:101E400003017100420E8800F1FC2C00A20E8000FC
:101E5000030023000101610003017100A20E88004C
:101E6000B1FF2C00820E8000030020000101610000
:101E700003017100820E8800B1FF2C00920E8000D9
:101E8000030020000101610003017100920E88002F
:101E9000CEA1A900CE81A900580F040000000000C7
:101EA000AA06020000000000580F04000000000015
:101EB00060A0A8009660A80060C0A8009660A80076
:101EC00060E0A8009660A8008660A900A00120003C
:101ED0000C0009004F1078004F0078003600F90020
:101EE0004200F900004006004407A9004427A90069
:101EF0004447A9004467A9004487A9004607A900F0
:101F00004627A8004647A8004667A8004687A900BC
:101F100046A7A90046C7A80046E7A9004707A900A9
:101F200044C7A90044E7A9000000060041E2A90057
:101F300061E2A90004682000040F88000415200055
:101F4000140F8800843E2000340F8800E421EF0045
:101F50000400280024198800040E280004198800B1
:101F6000B4FF2F00641988002223EF002400200012
:101F7000441988000421EF0024A1270014088800D8
:101F800004022A002408880004002800040E8800A7
:101F9000CA61EF00D0E1A800D2E1A8000101200051
:101FA000020E80006301610082807000C001F800B1
:101FB000E1FF9F00C001F90084382100240E880051
:101FC000E1EE2F00420E80001301200001016100AC
:101FD00003017100420E8800C1CF2F00A20E8000C5
:101FE000030020000101610003017100A20E8800BE
:101FF000E1CF2F00820E800003002000010161006C
:1020000003017100820E8800E1CF2F00920E800044
:10201000030020000101610003017100920E88009D
:1020200050C4B300CCE1B700CE21A900CE01A90075
:10203000D1DD2F00420E800023022000010161004B
:1020400003017100420E8800313F2F00A20E800074
:10205000030020000101610003017100A20E88004D
:10206000D13F2F00820E800003002000010161009B
:1020700003017100820E8800D13F2F00920E800074
:10208000030020000101610003017100920E88002D
:10209000CE61A900CE41A900B1BB2F00420E800045
:1020A000430420000101610003017100420E880019
:1020B000F1FC2C00A20E8000030020000101610051
:1020C00003017100A20E8800B1FF2C00820E800077
:1020D000030020000101610003017100820E8800ED
:1020E000B1FF2C00920E800003002000010161006E
:1020F00003017100920E8800CEA1A900CE81A90033
:10210000F4012000441688000008F800D601F90008
:102110000008F800D801F9000008F800DA01F90019
:1021200081E0A900040E20001402880081E0A800CC
:102130009780A9009B40A900000006009460A800B9
:1021400060A0A8009660A80060C0A8009660A800E3
:1021500060E0A8009660A80081E0A9004220EF009E
:1021600081E0A80000000600404427002005880008
:10217000404424006005880081E0A80080F0210030
:10218000A4A6B70000302000C8A6B7006004200055
:1021900042E7B7007005200042E7B70042C7A80039
:1021A0000400280004118800044020001411880055
:1021B0002062A80064052000441188000028EF0078
:1021C0000228EF000428EF000628EF000828EF009F
:1021D0000A28EF000C28EF000E28EF001028EF006F
:1021E0001228EF001428EF001628EF001828EF003F
:1021F0002028EF0044252400144188003028EF00F7
:102200003228EF003428EF0084022000B441880017
:102210003A28EF002CA3EF000FF82300F0FF230073
:1022200020A0B70000000000740F020000000000B2
:10223000960F0200000000009E1002000000000047
:1022400001002000010078000002020000000000F0
:102250008100E800811F78002322AF00FEFF3700D5
:1022600020118800CF007800400020000008E60020
:10227000F4FF37003A110400000000000040FE00A7
:0200000401F009
:10000000C7000000C70000000700000083000000D8
:10001000250000005F000000F7000000C3000000A2
:00000001FF
;DSPIC33FJ128MC802
;CRC=7D3C  CREATED="15-jul-15 15:17"
